:1000000002000375817F02000920FB05A9E8E9F4DD
:10001000F9B90003120051B90103120064B90203D7
:10002000120077B90303120120B904031201C9B900
:1000300005031201F3B906031202841202B512007D
:10004000097BB47AFA79FAD9FE20FBBDDAF7DBF343
:1000500022758FA4758E827594987593A47592F904
:100060007591F922758FFF758EFF7594FF7593FF5B
:100070007592827591C022758FA4758E8275949841
:100080007593A47592F97591F9120041758F827577
:100090008E987594A47593F97592F97591821200F2
:1000A00041758F98758EA47594F97593F975928240
:1000B0007591C0120041758FA4758EF97594F9750C
:1000C00093827592C07591A4120041758FF9758E57
:1000D000F97594827593C07592A47591821200414E
:1000E000758FF9758E827594C07593A4759282751B
:1000F0009198120041758F82758EC07594A4759386
:10010000827592987591A4120041758FC0758EA466
:100110007594827593987592A47591F91200412295
:10012000758FA4758E827594987593A47592F975E0
:1001300091F9120041758FC0758EA47594827593E4
:10014000987592A47591F9120041758F82758EC0D1
:100150007594A47593827592987591A41200417557
:100160008FF9758E827594C07593A475928275917E
:1001700098120041758FF9758EF97594827593C048
:100180007592A4759182120041758FA4758EF975D0
:1001900094F97593827592C07591A4120041758F80
:1001A00098758EA47594F97593F97592827591C0BE
:1001B000120041758F82758E987594A47593F975A8
:1001C00092F975918212004122758F98758EA475EF
:1001D00094F97593F97592827591C0120041758FEB
:1001E000FF758EFF7594FF7593FF7592FF7591FFF4
:1001F000120041758FFF758EFF7594FF7593FF7523
:1002000092FF7591FF120041758FA4758EFF759452
:10021000FF7593FF7592FF7591FF120041758FA4D2
:10022000758E827594FF7593FF7592FF7591FF121D
:100230000041758FA4758E827594987593FF7592A1
:10024000FF7591FF120041758FA4758E8275949889
:100250007593A47592FF7591FF120041758FA47577
:100260008E827594987593A47592F97591FF12001A
:1002700041758FA4758E827594987593A47592F9C3
:100280007591F922758FC6758E867594C67593C65D
:100290007592C67591FF120041120051120041750E
:1002A0008FC6758EC67594C67593C07592A47591E8
:1002B000F912004122758F86758E997594A17593F8
:0802C000997592887591C62220
:00000001FF
