:1000000002000375817F12005912004920FB06A8E7
:10001000E8E8F888E8E8B40003120059B4010312D4
:10002000006CB4020312007FB40303120128B4046D
:10003000031201D1B405031201FCB40603120290AD
:10004000B407031202C112000C7BB47AFA79FAD910
:10005000FE30FBB8DAF7DBF322758FA4758E82755C
:1000600094987593927592F97591F922758FFF7531
:100070008EFF7594FF7593FF7592827591C02275FE
:100080008FA4758E827594987593927592F9759177
:10009000F9120049758F82758E987594927593F94F
:1000A0007592F9759182120049758F98758E9275C7
:1000B00094F97593F97592827591C0120049758F04
:1000C00092758EF97594F97593827592C07591A4A5
:1000D000120049758FF9758EF97594827593C07504
:1000E00092A4759182120049758FF9758E8275946C
:1000F000C07593A4759282759198120049758F828C
:10010000758EC07594A475938275929875919212AC
:100110000049758FC0758EA47594827593987592F9
:10012000927591F912004922758FA4758E8275948B
:10013000987593927592F97591F9120049758FC06F
:10014000758EA47594827593987592927591F91233
:100150000049758F82758EC07594A47593827592CF
:1001600098759192120049758FF9758E827594C0B9
:100170007593A4759282759198120049758FF975DF
:100180008EF97594827593C07592A4759182120050
:1001900049758F92758EF97594F97593827592C031
:1001A0007591A4120049758F98758E927594F975A2
:1001B00093F97592827591C0120049758F82758E80
:1001C000987594927593F97592F975918212004918
:1001D00022758F98758E927594F97593F975928240
:1001E0007591C0120049758FFF758EFF7594FF756C
:1001F00093FF7592FF7591FF12004922758FFF756D
:100200008EFF7594FF7593FF7592FF7591FF120035
:1002100049758FA4758EFF7594FF7593FF7592FFD6
:100220007591FF120049758FA4758E827594FF75C4
:1002300093FF7592FF7591FF120049758FA4758E1B
:10024000827594987593FF7592FF7591FF1200491E
:10025000758FA4758E827594987593927592FF75BB
:1002600091FF120049758FA4758E827594987593CD
:10027000927592F97591FF120049758FA4758E825F
:100280007594987593927592F97591F912004922B7
:10029000758F89758E867594CF7593CF7592C0755D
:1002A00091FF120049120059120049758FC6758ED0
:1002B0008C7594AB7593B07591F97592A412004941
:1002C00022758F86758E997594A17593997592880C
:0402D0007591C6223C
:00000001FF
